:020000020000FC
:0200000080C0BE
:020030009FC06F
:02003C00B5C04D
:02004800D1C025
:02004C0009C1E8
:1000500008C10302010004050607202020202020FB
:100060002020312E20554C4F4841202D20564954F8
:100070002050455452494B202020202020200A00A7
:100080002020202020202020457272202D20696E03
:1000900076616C69642063686172202020202020D2
:1000A000200A0061447EB64B620494D0840E08029C
:1000B000014AFC60DAF266B6BEE0FEF690B0861247
:1000C000C2CBFAEE3E9C7A9E8EBC6E0C78AE1CA81B
:1000D000ECFCCED6CCB61E7C7C546E76DA9C26F038
:1000E000C41040FA3E1A7ADE8EF62E0830AE0C2886
:1000F0002A3ACEE60AB61E3838286E76DA620C0E38
:1001000080000FEF0DBF00E10EBFA2E1B2E0EAE513
:10011000F0E00E9442010FEF07BB0FE001BB10E0CF
:100120000FE50E949B0006E010E90E94A4000E94D7
:10013000AD007894FFCF1093900009B908E90AB98F
:1001400006E000939500089528E0202B23BF11BFFF
:1001500017B702E0012B07BF08950CE10BBD00E2C9
:100160000ABD0DE00EBD17B700E1012B07BF0895D2
:10017000E4E1F4E00081102F139510832227E2E1DF
:10018000F2E0E00FF21FA0E0B2E011911D931032F7
:1001900020F023952830CCF31895E4E1F4E010E04A
:1001A0001083003029F71895E0E1F2E00081102F6C
:1001B000139518300CF010E0108310E018BBE2E546
:1001C000F0E0E00FF11F149112BB1127E0E0F2E024
:1001D000E00FF11F0081003228F4E0E1F2E000E0DE
:1001E0000083E2CF0E94320108BB18950CB1222790
:1001F000A2E1B4E01C91E2E1F2E0E10FF21F208104
:10020000003268F02A3029F410E00E943901E2E15E
:10021000F2E00F3750F4008313951C931AC00A3094
:1002200021F40083A2E1B2E014C00E943901112739
:100230001C93A2E1B2E0E0E8F0E0332724E10E9461
:10024000420153955C93E2E1F2E0E50FF31F00E217
:100250000083E4E1F4E010E010830E94B8001895F8
:10026000189518950052E2EAF0E0E00FF11F0491B2
:100270000895E2E1F2E040E033274193339509F03D
:10028000FCCF08955527539545914D934A30D9F7A2
:0A029000A2E1B4E05A955C930895D2
:00000001FF
