:020000020000FC
:0200000056C0E8
:080030000C94C8000C943B0184
:10003C000C94A00000412E363A4100000000007FD5
:10004C003D003F7F00000000003E1E2E36390000B0
:10005C000000003E3636364900000000007077770D
:10006C00777F0000000000303636364E000000006E
:10007C0000413636364F00000000007E7E0E76784A
:10008C0000000000004936363649000000000059D7
:10009C003636364100000000001C6B776B1C0000EC
:1000AC0000000FEF0DBF00E10EBF0FE007BB0FEF1D
:1000BC0002B90FE703B91F980E9456011F9A0E94BC
:1000CC0056011F98EEE1F2E000E00083E4E2F2E07A
:1000DC0000E00083E0E2F2E000E00083E2E2F2E024
:1000EC000AE00083E6E2F2E00AE00083E8E2F2E0F4
:1000FC0000E0008304E01FEF0E9489000E94920040
:10010C00FF247894FFCF28E0202B23BF11BF17B713
:10011C0002E0012B07BF089500E00BBD04E60ABD09
:10012C0008E309BD00E408BD0DE00EBD07B7006192
:10013C0007BF08950F931F932F930FEF03B9E2E2BC
:10014C00F2E000811AE0019F002DE4E2F2E0108160
:10015C00113019F42FEF21BF04C0163011F421E037
:10016C0021BF010F13951A3008F010E010831127EE
:10017C00E0E4F0E0E00FF11F049103B92F911F911F
:10018C000F9118950F931F932F93E6E2F2E02081C5
:10019C000F931BE00EEF08BB0E946101B49B11E0B2
:1001AC00B59B12E0B69B13E00DEF08BB0E946101FA
:1001BC00B49B14E0B59B15E0B69B16E00BEF08BBA7
:1001CC000E946101B49B17E0B59B18E0B69B19E047
:1001DC0007EF08BB0E946101B59B10E0B79B1AE0CA
:1001EC00121709F43EC010831B3009F43AC0E8E240
:1001FC00F2E00081003009F51A3071F02227C0E0DE
:10020C00D2E0EEE1F2E00081C00FD21F188303951B
:10021C000F3011F0008325C0EEE1F2E000810530D3
:10022C0000F107B7086007BFE0E2F2E000E00083EE
:10023C00E8E2F2E001E0008314C0013091F41A30DE
:10024C0009F00FC007B7077F07BFE2E2F2E00AE050
:10025C000083EEE1F2E000E00083E8E2F2E00083EC
:10026C0000C02F911F910F9118950F931F932F93EF
:10027C00C0E0D2E0E0E2F2E00081C00FD21F1881B2
:10028C00C2E2D2E01883CEE1D2E0188103950117C7
:10029C0008F000E0008303952F911F910F911895A2
:1002AC002F933F9322E337EC3A95F1F72A95E1F738
:1002BC003F912F9108952F9325E02A95F1F72F91D7
:0202CC00089593
:00000001FF
